{
    "contractName": "StudentInfo",
    "abi": [
        {
            "inputs": [
                {
                    "internalType": "string",
                    "name": "name",
                    "type": "string"
                },
                {
                    "internalType": "uint256",
                    "name": "age",
                    "type": "uint256"
                },
                {
                    "internalType": "string",
                    "name": "dob",
                    "type": "string"
                },
                {
                    "internalType": "string",
                    "name": "gender",
                    "type": "string"
                },
                {
                    "internalType": "string",
                    "name": "club",
                    "type": "string"
                },
                {
                    "internalType": "string",
                    "name": "course",
                    "type": "string"
                },
                {
                    "internalType": "address",
                    "name": "account",
                    "type": "address"
                }
            ],
            "name": "EnterStudentDetails",
            "outputs": [],
            "stateMutability": "nonpayable",
            "type": "function"
        },
        {
            "inputs": [
                {
                    "internalType": "uint256",
                    "name": "id",
                    "type": "uint256"
                }
            ],
            "name": "RetriveAge",
            "outputs": [
                {
                    "internalType": "uint256",
                    "name": "",
                    "type": "uint256"
                }
            ],
            "stateMutability": "view",
            "type": "function"
        },
        {
            "inputs": [
                {
                    "internalType": "uint256",
                    "name": "id",
                    "type": "uint256"
                }
            ],
            "name": "RetriveClub",
            "outputs": [
                {
                    "internalType": "string",
                    "name": "",
                    "type": "string"
                }
            ],
            "stateMutability": "view",
            "type": "function"
        },
        {
            "inputs": [
                {
                    "internalType": "uint256",
                    "name": "id",
                    "type": "uint256"
                }
            ],
            "name": "RetriveCourse",
            "outputs": [
                {
                    "internalType": "string",
                    "name": "",
                    "type": "string"
                }
            ],
            "stateMutability": "view",
            "type": "function"
        },
        {
            "inputs": [
                {
                    "internalType": "uint256",
                    "name": "id",
                    "type": "uint256"
                }
            ],
            "name": "RetriveDOB",
            "outputs": [
                {
                    "internalType": "string",
                    "name": "",
                    "type": "string"
                }
            ],
            "stateMutability": "view",
            "type": "function"
        },
        {
            "inputs": [
                {
                    "internalType": "uint256",
                    "name": "id",
                    "type": "uint256"
                }
            ],
            "name": "RetriveGender",
            "outputs": [
                {
                    "internalType": "string",
                    "name": "",
                    "type": "string"
                }
            ],
            "stateMutability": "view",
            "type": "function"
        },
        {
            "inputs": [
                {
                    "internalType": "uint256",
                    "name": "id",
                    "type": "uint256"
                }
            ],
            "name": "RetriveName",
            "outputs": [
                {
                    "internalType": "string",
                    "name": "",
                    "type": "string"
                }
            ],
            "stateMutability": "view",
            "type": "function"
        },
        {
            "inputs": [
                {
                    "internalType": "string",
                    "name": "course",
                    "type": "string"
                }
            ],
            "name": "RetriveStrudentFromSameCourse",
            "outputs": [
                {
                    "internalType": "uint256[]",
                    "name": "",
                    "type": "uint256[]"
                }
            ],
            "stateMutability": "view",
            "type": "function"
        },
        {
            "inputs": [],
            "name": "counter",
            "outputs": [
                {
                    "internalType": "uint256",
                    "name": "",
                    "type": "uint256"
                }
            ],
            "stateMutability": "view",
            "type": "function"
        }
    ],
    "bytecode": "608060405234801561001057600080fd5b5061098d806100206000396000f3fe608060405234801561001057600080fd5b50600436106100935760003560e01c80635f2b7331116100665780635f2b73311461012657806361bc221a14610139578063705afe6514610142578063b898ee7e14610157578063c04481511461016a57600080fd5b806307856652146100985780631ab2eb90146100c15780632d8446d8146100f3578063388ecf3e14610113575b600080fd5b6100ab6100a6366004610587565b61017d565b6040516100b891906105a0565b60405180910390f35b6100e56100cf366004610587565b6000908152600160208190526040909120015490565b6040519081526020016100b8565b610106610101366004610698565b610222565b6040516100b891906106d5565b6100ab610121366004610587565b610372565b6100ab610134366004610587565b610392565b6100e560005481565b610155610150366004610735565b6103b2565b005b6100ab610165366004610587565b6104b1565b6100ab610178366004610587565b6104d1565b600081815260016020526040902060040180546060919061019d90610821565b80601f01602080910402602001604051908101604052809291908181526020018280546101c990610821565b80156102165780601f106101eb57610100808354040283529160200191610216565b820191906000526020600020905b8154815290600101906020018083116101f957829003601f168201915b50505050509050919050565b60606000805b610233826001610872565b81101561029357838051906020012060016000838152602001908152602001600020600501604051610265919061088a565b60405180910390201415610281578161027d81610926565b9250505b8061028b81610926565b915050610228565b60008267ffffffffffffffff8111156102ae576102ae6105f5565b6040519080825280602002602001820160405280156102d7578160200160208202803683370190505b50905060008092505b6102eb846001610872565b8310156103695785805190602001206001600085815260200190815260200160002060050160405161031d919061088a565b60405180910390201415610357578282828151811061033e5761033e610941565b60209081029190910101528061035381610926565b9150505b8261036181610926565b9350506102e0565b50949350505050565b600081815260016020526040902060030180546060919061019d90610821565b600081815260016020526040902060050180546060919061019d90610821565b336001600160a01b038216146103c757600080fd5b6040805160c0810182528881526020808201899052818301889052606082018790526080820186905260a082018590526000805481526001825292909220815180519293919261041a92849201906104ee565b5060208281015160018301556040830151805161043d92600285019201906104ee565b50606082015180516104599160038401916020909101906104ee565b50608082015180516104759160048401916020909101906104ee565b5060a082015180516104919160058401916020909101906104ee565b5050600080549150806104a383610926565b919050555050505050505050565b600081815260016020526040902060020180546060919061019d90610821565b600081815260016020526040902080546060919061019d90610821565b8280546104fa90610821565b90600052602060002090601f01602090048101928261051c5760008555610562565b82601f1061053557805160ff1916838001178555610562565b82800160010185558215610562579182015b82811115610562578251825591602001919060010190610547565b5061056e929150610572565b5090565b5b8082111561056e5760008155600101610573565b60006020828403121561059957600080fd5b5035919050565b600060208083528351808285015260005b818110156105cd578581018301518582016040015282016105b1565b818111156105df576000604083870101525b50601f01601f1916929092016040019392505050565b634e487b7160e01b600052604160045260246000fd5b600082601f83011261061c57600080fd5b813567ffffffffffffffff80821115610637576106376105f5565b604051601f8301601f19908116603f0116810190828211818310171561065f5761065f6105f5565b8160405283815286602085880101111561067857600080fd5b836020870160208301376000602085830101528094505050505092915050565b6000602082840312156106aa57600080fd5b813567ffffffffffffffff8111156106c157600080fd5b6106cd8482850161060b565b949350505050565b6020808252825182820181905260009190848201906040850190845b8181101561070d578351835292840192918401916001016106f1565b50909695505050505050565b80356001600160a01b038116811461073057600080fd5b919050565b600080600080600080600060e0888a03121561075057600080fd5b873567ffffffffffffffff8082111561076857600080fd5b6107748b838c0161060b565b985060208a0135975060408a013591508082111561079157600080fd5b61079d8b838c0161060b565b965060608a01359150808211156107b357600080fd5b6107bf8b838c0161060b565b955060808a01359150808211156107d557600080fd5b6107e18b838c0161060b565b945060a08a01359150808211156107f757600080fd5b506108048a828b0161060b565b92505061081360c08901610719565b905092959891949750929550565b600181811c9082168061083557607f821691505b6020821081141561085657634e487b7160e01b600052602260045260246000fd5b50919050565b634e487b7160e01b600052601160045260246000fd5b600082198211156108855761088561085c565b500190565b600080835481600182811c9150808316806108a657607f831692505b60208084108214156108c657634e487b7160e01b86526022600452602486fd5b8180156108da57600181146108eb57610918565b60ff19861689528489019650610918565b60008a81526020902060005b868110156109105781548b8201529085019083016108f7565b505084890196505b509498975050505050505050565b600060001982141561093a5761093a61085c565b5060010190565b634e487b7160e01b600052603260045260246000fdfea2646970667358221220028d3a47d9e243b321b7d2eab5019ebbb32291b5530e1634f9957ccd4ab5514a64736f6c634300080b0033",
    "sourcePath": "p:/Projects/student-tracker-ETH/contracts/Studentinfo.sol",
    "compiler": {
        "name": "solc",
        "version": "0.8.11+commit.d7f03943"
    },
    "functionHashes": {
        "EnterStudentDetails(string,uint256,string,string,string,string,address)": "705afe65",
        "RetriveAge(uint256)": "1ab2eb90",
        "RetriveClub(uint256)": "07856652",
        "RetriveCourse(uint256)": "5f2b7331",
        "RetriveDOB(uint256)": "b898ee7e",
        "RetriveGender(uint256)": "388ecf3e",
        "RetriveName(uint256)": "c0448151",
        "RetriveStrudentFromSameCourse(string)": "2d8446d8",
        "counter()": "61bc221a"
    },
    "gasEstimates": {
        "creation": {
            "codeDepositCost": "489000",
            "executionCost": "524",
            "totalCost": "489524"
        },
        "external": {
            "EnterStudentDetails(string,uint256,string,string,string,string,address)": "infinite",
            "RetriveAge(uint256)": "2473",
            "RetriveClub(uint256)": "infinite",
            "RetriveCourse(uint256)": "infinite",
            "RetriveDOB(uint256)": "infinite",
            "RetriveGender(uint256)": "infinite",
            "RetriveName(uint256)": "infinite",
            "RetriveStrudentFromSameCourse(string)": "infinite",
            "counter()": "2317"
        }
    }
}